:1000000030610020413B00003B360000293A0000EF
:100010007B3A0000873A0000F53B0000000000003A
:10002000000000000000000000000000F73B00009E
:10003000F93B000000000000FB3B0000FD3B00001E
:100040004F320000FF3B000069090000013C000046
:10005000033C0000053C0000073C0000093C000098
:100060000B3C00000D3C00000F3C0000113C000068
:10007000133C0000153C0000173C0000193C000038
:100080001B3C0000592900001D3C00001F3C0000E3
:10009000213C0000233C0000253C0000273C0000E0
:1000A000293C00002B3C00002D3C00002F3C0000B0
:1000B000313C0000333C0000000000000000000064
:1000C000353C0000373C0000393C00003B3C000060
:1000D0003D3C00003F3C0000413C000000000000AF
:1000E0000000000000000000000000000000000010
:1000F0000000000000000000000000000000000000
:1001000000000000000000000000000000000000EF
:1001100000000000000000000000000000000000DF
:1001200000000000000000000000000000000000CF
:1001300000000000000000000000000000000000BF
:1001400000000000000000000000000000000000AF
:10015000000000000000000000000000000000009F
:10016000000000000000000000000000000000008F
:10017000000000000000000000000000000000007F
:10018000000000000000000000000000000000006F
:10019000000000000000000000000000000000005F
:1001A000000000000000000000000000000000004F
:1001B000000000000000000000000000000000003F
:1001C000000000000000000000000000000000002F
:1001D000000000000000000000000000000000001F
:1001E000000000000000000000000000000000000F
:1001F00000000000000000000000000000000000FF
:10020000012210F01F018A40DFF8401703005BB2A3
:100210005B0941F82320704710B4020052B2002A53
:100220000AD54A01DFF82837040064B214F00F043D
:10023000234403F8042C05E04A01DFF818370400D2
:1002400064B21A5510BC7047000B40B2704738B505
:1002500004000D002900C9B2200040B2FFF7DCFF06
:1002600031BD10B50400200040B2FFF7C9FF10BD3A
:1002700081B000220B001BB2C2500A0012B2825899
:100280000092009A01B0704709B24058002801D08E
:10029000012000E00020C0B27047C0F8041370478E
:1002A000D0F80403084201D0012000E00020C0B2D1
:1002B0007047C0F8081370470100D1F88004C1F8F6
:1002C000800470470421C0F800157047C0F8142559
:1002D000C0F80C157047C0F80815C0F81025704715
:1002E000D0F81805C0B270470A00D2B2C0F81C2579
:1002F000704701220B00DBB2C250704710B40C00F3
:10030000E4B21300DBB21C43C0F86C4510BC70476C
:10031000C0F82415704701005FF0A04070472DE938
:10032000F14181B00E0017009846089C099D01A874
:10033000FFF7F1FF3100C9B23A00D2B251EA4201EF
:100340004246D2B251EA82012200D2B251EA0221DF
:100350002A00D2B251EA0241019A00EB8202C2F8AD
:100360000017BDE8F3811CB50400002001900020B7
:1003700000900023012201212000FFF7D0FF13BDD0
:100380003EB504000D0000200190002000902B00DD
:10039000DBB2002200212000FFF7C1FF37BD11B5FD
:1003A00081B001A8FFF7B7FF040001210198814047
:1003B000200000F001F813BDC0F80815704738B5EB
:1003C00004000D00286810F1010F05D02868FFF720
:1003D000E6FF2868FFF7C7FF686810F1010F03D038
:1003E00000216868FFF7CCFFA9692068FFF790FF3C
:1003F0002A7D697D2068FFF781FF6A682968206887
:10040000FFF764FF287D012816D1A86810F1010FBD
:1004100003D00021A868FFF7B3FFE86810F1010FCF
:1004200005D0E868FFF7BBFFE868FFF79CFFAA6804
:10043000E9682068FFF74FFF31BD38B504000D00B3
:100440004FF48E712068FFF713FF4FF4A2712068FC
:10045000FFF70EFFDFF800152068FFF71EFF20688A
:10046000FFF7F2FE2900C9B240B2FFF7F0FE2068A4
:10047000FFF7EAFE40B2FFF7F4FE31BD2DE9F0418F
:1004800004000D001600DFF8D41422792C2042431A
:1004900001EB02075FF0000897F82A00002801D05E
:1004A000082029E0DFF8B804217950F821102068ED
:1004B00000F06CFA002801D011201DE02900200076
:1004C000FFF77DFF7E60286938607868002803D0D8
:1004D000297F2000FFF7B1FF2068FFF7F3FE00201F
:1004E000B8610020F861002087F8290000207861B9
:1004F000012087F82A004046BDE8F08170B504006D
:100500000D004FF48E712000FFF7B2FEA868296A33
:10051000465C286A401C28623100C9B22000FFF7FF
:10052000E3FE70BD70B504000D006E69286AB0422C
:1005300011D24FF48E712000FFF7A6FE002805D1DE
:1005400095F828000028F4D0002005E029002000BC
:10055000FFF7D4FFEAE7012070BD2DE9F041040068
:100560000D001600DFF8F41322792C20424301EB32
:100570000207200000F036F8002801D011202FE0FB
:100580007E61BD6000203862002087F828005FF09F
:1005900000084FF48E712068FFF76AFE082120687A
:1005A000FFF7A7FE39002068FFF7A8FF786800284A
:1005B00015D139002068FFF7B5FF002802D10F20C0
:1005C00080460AE04FF48E712068FFF75DFE002838
:1005D000F8D00C212068FFF78CFE0020786140469F
:1005E000BDE8F081DFF8741302792C20424301EB5F
:1005F00002004069002801D0012000E00020C0B2C4
:10060000704710B504004FF492712068FFF730FE78
:100610004FF484712068FFF72BFE00212068FFF75C
:1006200068FE10BD70B504000D00A869002808D14F
:100630004FF484712000FFF71BFE2000FFF750FEEF
:100640000DE04FF484712000FFF712FE6E6A200067
:10065000FFF746FEE9688855686A401C686270BD0D
:100660002DE9F84F04000D001600DFF8F012227992
:100670002C20424301EB02075FF000087868002855
:1006800004D04FF401712068FFF713FEB869002809
:100690000ED0F869002809D07868002804D04FF4FB
:1006A00001712068FFF7F9FD112072E001208046FA
:1006B0004046C0B2002806D1BE61FD6000207862CD
:1006C0000020F86101E03D61FE6197F829000028F3
:1006D00006D14046C0B2002802D12000FFF791FFAA
:1006E000786800284FD14FF4A2712068FFF7C0FD51
:1006F0004FF492712068FFF7C7FD82464FF4847172
:100700002068FFF7C1FD81464FF4A2712068FFF712
:10071000BBFD83464846C0B2002807D15846C0B248
:10072000002803D15046C0B20028E1D05046C0B2E4
:10073000002803D15846C0B2002800D007E0390095
:100740002068FFF76FFF786AB9698842D0D300202C
:10075000B8615046C0B2002801D0032019E05846C5
:10076000C0B2002801D00F2013E097F8290000281C
:1007700004D000212068FFF7BCFD09E004212068B7
:10078000FFF7B7FD04E04FF401712068FFF785FD26
:100790000020BDE8F28F7FB504000D001600012097
:1007A0008DF80000029501962168684662689047BE
:1007B0007FBD38B584B004000D0000208DF8000026
:1007C0000295A06801900020606121686846626817
:1007D000904705B030BDF8B584B004000D004FF46B
:1007E00000712000FFF75CFD00282CD04FF49271BF
:1007F0002000FFF749FD002825D04FF4927120001A
:10080000FFF736FD4FF401712000FFF752FD95F818
:100810002900002803D104212000FFF76AFD0220EF
:100820008DF800002000FFF747FD0390A8690290B3
:10083000E86801900020A8610020E8612968684606
:100840006A6890473BE004212000FFF729FD00285B
:1008500035D04FF484712000FFF716FD00282ED00C
:1008600029002000FFF7DEFEA869696A884226D1C8
:10087000E86900280FD0EE686F6AE869A861286906
:10088000E8600020E861002068623200390028003A
:10089000FFF781FF13E095F82900002803D1042118
:1008A0002000FFF726FD4FF401712000FFF701FD46
:1008B0000020A861EA68696A2800FFF76CFF4FF41E
:1008C0008E712000FFF7E0FC002818D06E69286ABE
:1008D000B04208D295F82800002804D12900200051
:1008E000FFF70CFE0BE04FF48E712000FFF7C0FC09
:1008F0006869002803D069692800FFF75AFF4FF4A0
:10090000A2712000FFF7C0FC002816D04FF4A2719E
:100910002000FFF7ADFC95F82900002803D0002146
:100920002000FFF7E6FCA869002806D00020A86197
:10093000EA68696A2800FFF72EFF05B0F0BD80B5B0
:1009400006490848FFF747FF01BD000000E100E04D
:1009500018ED00E000E400E08000020064250020C3
:10096000E83B00000020004080B506480068804752
:1009700001BD01000448814201D1024800E000208D
:10098000704700005826002000200040F8B5050000
:100990000E002800FFF7EDFF0400002C15D0002703
:1009A000002000F043F82079002802D00120070041
:1009B00002E0266001202071002000F03CF83800A1
:1009C000C0B2002801D0112000E00020F2BD30B4F8
:1009D000002513E050F8042BD30744BFA9F101030D
:1009E0009A18091F042942F8045BFAD213468C07AF
:1009F00044BF15809B1CC90748BF1D7050F8041BDD
:100A00000029E7D130BC704772B607480168491C1D
:100A10000160704704480168491E016000680028B1
:100A200000D162B6704700006826002010B50400AF
:100A3000FFF7EAFF10BD10B50400FFF7EBFF10BD94
:100A4000012210F01F018A40DFF8D81603005BB2C4
:100A50005B0941F82320704710B4020052B2002A0B
:100A60000AD54A01DFF8C036040064B214F00F045E
:100A7000234403F8042C05E04A01DFF8B0360400F3
:100A800064B21A5510BC704710F06040B0F1005FBE
:100A900001D1012000E00020C0B27047000B40B23D
:100AA000704738B504000D002900C9B2200040B2DB
:100AB000FFF7D2FF31BD10B50400200040B2FFF7B0
:100AC000BFFF10BD81B000220B001BB2C2500A0054
:100AD00012B282580092009A01B0704709B2405891
:100AE000002801D0012000E00020C0B27047D0F8FB
:100AF00000220A43C0F800227047D0F800228A433F
:100B0000C0F800227047C0F804137047C0F80813FB
:100B100070470100D1F88004C1F8800470470821B3
:100B2000C0F800157047C0F80C15C0F814257047C0
:100B3000C0F80815C0F81025704701220B00DBB281
:100B4000C250704710B40C00E4B21300DBB21C4377
:100B5000C0F86C4510BC7047C0F824157047C0F849
:100B60004415C0F848257047D0F84C057047C0F8C8
:100B70003415C0F838257047D0F83C05704701009F
:100B80005FF0A04070472DE9F14181B00E001700E1
:100B90009846089C099D01A8FFF7F1FF3100C9B2F2
:100BA0003A00D2B251EA42014246D2B251EA82013F
:100BB0002200D2B251EA02212A00D2B251EA024105
:100BC000019A00EB8202C2F80017BDE8F3811CB560
:100BD0000400002001900020009000230122012148
:100BE0002000FFF7D0FF13BD3EB504000D0000202C
:100BF0000190002000902B00DBB200220021200099
:100C0000FFF7C1FF37BD11B581B001A8FFF7B7FFEE
:100C10000400012101988140200000F001F813BD7B
:100C2000C0F80815704738B504000D00286810F1A9
:100C3000010F05D02868FFF7E6FF2868FFF7C7FF18
:100C4000686810F1010F03D000216868FFF7CCFF3E
:100C5000A9692068FFF780FF2A7D697D2068FFF77A
:100C600071FF6A6829682068FFF75DFF287D012809
:100C700016D1A86810F1010F03D00021A868FFF772
:100C8000B3FFE86810F1010F05D0E868FFF7BBFF7C
:100C9000E868FFF79CFFAA68E9682068FFF748FF4B
:100CA00031BD38B504000D004FF488712068FFF79E
:100CB00009FF4FF490712068FFF704FF4FF4927121
:100CC0002068FFF7FFFE4FF4A2712068FFF7FAFEDD
:100CD0004FF4AC712068FFF7F5FEDFF8541420687C
:100CE000FFF711FF2068FFF7D9FE2900C9B240B213
:100CF000FFF7D7FE2068FFF7D1FE40B2FFF7DBFE1B
:100D000031BD2DE9F04104000D001600DFF8241478
:100D100022792420424301EB02075FF0000897F894
:100D20002000002801D0082026E0DFF80C042179FB
:100D300050F821102068FFF729FE002801D011206B
:100D40001AE029002000FFF76EFF7E6028693860F6
:100D50007868002803D0297F2000FFF7A2FF2068D1
:100D6000FFF7DDFE0020B8610020F8610020786107
:100D7000012087F820004046BDE8F0812DE9F047CA
:100D800004000D001600DFF8AC1322792420424342
:100D900001EB02072800FFF777FE002801D11020A1
:100DA00049E0200000F049F8002801D0112042E07D
:100DB0007E61BD605FF000084FF490712068FFF71E
:100DC00081FE4FF4AC712068FFF77CFE7A69B96848
:100DD0002068FFF7C4FE08212068FFF7AEFE7868A0
:100DE000002827D14FF490712068FFF777FE8246E4
:100DF0004FF4AC712068FFF771FE81465046C0B2D7
:100E0000002803D14846C0B20028EBD04846C0B203
:100E1000002802D00F2080460AE00C212068FFF74E
:100E20008CFE4FF4AC712068FFF758FE0028F8D014
:100E3000002078614046BDE8F087DFF8F8120279BB
:100E40002420424301EB02004069002801D0012028
:100E500000E00020C0B270472DE9F84F04000D00FB
:100E600016005FF02409DFF8CCA2207909FB00F01E
:100E70000AEB00072800FFF707FE002801D1102029
:100E800086E05FF000087868002804D04FF4047111
:100E90002068FFF73BFEB86900280ED0F8690028EB
:100EA00009D07868002804D04FF404712068FFF757
:100EB0002AFE11206CE0012080464046C0B2002886
:100EC00004D1BE61FD600020F86101E03D61FE617A
:100ED0005FF0000B4FF488712068FFF7F3FD4FF4CB
:100EE000A2712068FFF7EEFD320029002068FFF7AD
:100EF0003EFE4046C0B2002804D100212068FFF722
:100F00001CFE03E020212068FFF7F1FD207909FB9A
:100F100000F050444068002834D14FF488712068B4
:100F2000FFF7DCFD8DF802004FF4A2712068FFF797
:100F3000D5FD8DF801004FF492712068FFF7CEFDCA
:100F40008DF800009DF80200002807D19DF80100EF
:100F5000002803D19DF800000028DED0207909FB8D
:100F600000F90AEB0900002181619DF800000028CA
:100F700001D0032083469DF80100002807D00F20F0
:100F8000834604E04FF404712068FFF7BCFD584627
:100F9000BDE8F28F7FB504000D00160001208DF82A
:100FA00000000295019621686846626890477FBDFF
:100FB00038B584B004000D0000208DF800000295C3
:100FC000A0680190002060612168684662689047CF
:100FD00005B030BDF8B584B004000D004FF4927137
:100FE0002000FFF77BFD00281AD04FF492712000FB
:100FF000FFF768FD02208DF800002000FFF789FD53
:1010000003902000FFF7B8FD0290E86801900020EF
:10101000A8610020E861296868466A6890472DE069
:101020004FF488712000FFF759FD002826D04FF4B7
:1010300088712000FFF746FD2000FFF79DFD0600A8
:10104000A86986421AD1E869002810D0EF682021EB
:101050002000FFF752FDE869A8612869E8600020D8
:10106000E8613A0031002800FFF794FF06E0002015
:10107000A861EA6831002800FFF78CFF4FF4A271E5
:101080002000FFF72BFD002813D04FF4A2712000A1
:10109000FFF718FDA86900280BD00020A8610020E8
:1010A000E8612000FFF768FDEA6801002800FFF70B
:1010B00071FF4FF490712000FFF710FD002812D04F
:1010C0004FF490712000FFF7FDFC0C212000FFF78A
:1010D00034FD6869002806D02000FFF745FD0100B7
:1010E0002800FFF765FF4FF4AC712000FFF7F6FC16
:1010F00000280ED04FF4AC712000FFF7E3FC6869C4
:10110000002806D02000FFF72FFD01002800FFF780
:101110004FFF05B0F0BD80B506490848FFF75AFFFC
:1011200001BD000000E100E018ED00E000E400E097
:101130001003420090250020EC3B000000200040FE
:1011400038B504000D00290020002268126890477D
:1011500031BD10B50400200021684968884710BDE2
:1011600010B50400200021688968884710BD01215E
:10117000C26851717047C0684079704710B403006D
:1011800000201A68C2F38002002A18D01A7812F0E0
:101190000302012A02D0022A08D00EE00A681C6865
:1011A000C4F38314A41CA2180A6006E00A681C6831
:1011B000A40DA41CA2180A60FFE701221000C0B20F
:1011C00010BC70472DE9F84384B00024DFF88C553B
:1011D00015F5836000F011FB05F21449484600F054
:1011E0000CFB68680090AE680098304005EB80000A
:1011F00010F10C0769463800FFF7C0FF002806D041
:101200000098304005EB80000C300700F2E75FF0FB
:101210000008B8F1020F0DD20098304005EB8000B5
:10122000C06801A941F828000098401C009018F1FE
:101230000108EEE7019810F0030001280CD0022805
:1012400014D1BDF80A00040000980199890DC91C49
:1012500010EB9100009009E0BDF80A00040000992D
:101260000198C0F3831041180091FFE7484600F051
:10127000CBFA0100002901D000986860A4B22000D8
:1012800005B0BDE8F08380B50021DFF8DC0400F094
:1012900071FA010081F3100002BD2DE9F84304004A
:1012A0000D0016001F00DDF82080A1465FEA1949F5
:1012B000FFF7E9FFDFF8A4147A1C18EA020201EB39
:1012C000820259EA0043D36018EA070201EB820167
:1012D0000C310A6864F3C5020A600A6866F3891271
:1012E0000A600A6865F39F220A6001220B6862F3B4
:1012F00001030B600A6832F004020A60BDE8F18362
:101300002DE9F84F04000D001600A01C00900127E5
:101310000020FFF78BFBDFF84484D8F8000028603A
:10132000D8F80800401CD8F80090B0EB0909D8F8AC
:10133000040010EB09090098814517D208F21C4BF4
:101340000121584600F03EFAFFF73CFF8246514625
:10135000584600F037FAD8F80810491CD8F80000B1
:10136000091AD8F8040041188946E4E73800C0B2E9
:10137000002823D000213000C0B2002807D001206F
:1013800060F3010151F0040164F3891106E00220C9
:1013900060F3010151F0040164F39F51D8F800207B
:1013A000D8F80800024008EB820010F10C0211602E
:1013B000D8F800300098C318C8F800300020FFF7B4
:1013C0003AFB3800C0B2BDE8F28F2DE9FE4F0400B1
:1013D0000D0016001F00DFF88493D9F80880012261
:1013E00001A93800FFF78CFF00281BD0DDF804A00E
:1013F0001AF1020A5FF0000BBB450BD218EA0A0093
:1014000009EB800056F82B10C1601AF1010A1BF19C
:10141000010BF1E7CDF80080019B3A002900200084
:10142000FFF73BFF99F82004002803D000F019F8DB
:101430000028FBD1BDE8F78F38B504000D0000236C
:10144000002229002000FFF7C0FF31BDDFF80C03A8
:1014500041680068814201D1012000E00020C0B253
:1014600070472DE9F04F8BB0FFF7F0FF002801D057
:1014700000205BE1DFF8E4720020C7F81804BFF336
:101480004F8F78680090B8680190009901980140EA
:1014900007EB81000C300990002500260020089001
:1014A00069460998FFF76AFE002813D0D7F8180498
:1014B00000280FD100983968884203D338687860D3
:1014C000002033E100990198014007EB81000C30C6
:1014D0000990E5E75FF00008B8F1020F0ED200991D
:1014E0000198014007EB8100C06803A941F828007A
:1014F0000098401C009018F10108EDE7039810F0E7
:101500000300022840F07F80DDF80C905FEA9959D3
:101510000398800D502804DADDF80CA05FEA9A5A8F
:1015200001E05FF0500A03986AF39F5003901AF1AC
:1015300008000A900398C0F3C20008900A998848EE
:1015400000F069F90500002D00F0A280280000F0ED
:10155000C8F93300082203A9280000F04BFA083626
:101560000199491C009A01980240891A8C0054453F
:1015700035D2002C07D000990198014007EB81007B
:101580000C30079002E017F10C000790002C01D0FE
:10159000A34600E0D346002C03D017F10C000690C0
:1015A00001E000200690002C02D0BAEB040000E01D
:1015B00000208DF8080033005A46D2B2079928005F
:1015C00000F018FA56FA8BF60698002814D033006B
:1015D0009DF808200699280000F00CFA0CE000990C
:1015E0000198014007EB810010F10C0B33005246CB
:1015F0005946280000F0FEF9009819F1030910EB94
:101600009900009044E0039810F0030001283FD1B6
:101610000398C0F38310062803DA0398C0F38310FD
:1016200000E00620039960F3891103910398C0F349
:101630008314A41C0398C0F3C2000890A10048487A
:1016400000F0E9F80500002D22D0280000F049F94B
:101650003300082203A9280000F0CCF90836002046
:1016600080460398C0F38310804511D20099481C2E
:101670000090330004220198014007EB810010F133
:101680000C01280000F0B6F9361D18F10108E8E752
:10169000002D2FD0D7F81044D7F81804002803D015
:1016A000280000F026F939E0002C13D05FF0000983
:1016B0002000FFF760FD012801D101208146484646
:1016C000C0B2002803D029002000FFF739FDE068F0
:1016D0000468E9E7280000F00CF90020FFF7A6F9FC
:1016E000D7F81804002801D1009878600020FFF78F
:1016F000A2F913E0D7F81044002C05D02000FFF722
:101700002FFDE0680468F7E718491948154A801A60
:10171000C008000450F00200FFF78EFEFFF796FEAF
:10172000002801D1012000E00020C0B20BB0BDE8CC
:10173000F08F10B50948D0F81044012180F820142A
:10174000002C08D02000FFF712FD2000FFF701FD5C
:10175000E0680468F4E710BD0000000028200020C5
:101760001C3B00002439000044240020F43A00000F
:101770003439000010B4020052E8000F0B4642E872
:10178000003494F0000FF7D110BC704710B4020081
:1017900052E8003F43EA010042E8000494F0000FE1
:1017A000F6D110BC7047000010B4020052E8000FE0
:1017B00000EA010342E8003494F0000FF6D110BCB7
:1017C0007047000010B4020052E8003F03EB010034
:1017D00042E8000494F0000FF6D110BC70470000FE
:1017E00010B4020052E8003FA3EB010042E80004FD
:1017F00094F0000FF6D110BC704710B50400012121
:101800002000FFF7C3FF10BD10B504000021200029
:10181000FFF7CAFF10BD2DE9F84F06000F00B6F81C
:101820001080B8F1040818EB0700C01CB0FBF8F9F1
:10183000300000F0FCF80500002D01D1002027E069
:101840000020287101206871A5F806800095CA461D
:101850005FFA8AFABAF1010A009806605FF0000B9D
:10186000D34514D2300000F0E2F80400002C09D077
:101870006879401C687100980460266000941BF130
:10188000010BEDE7280000F005F8002000E028003B
:10189000BDE8F28F2DE9F84F05002E007779290079
:1018A000B8465FFA88F8B8F101080020404502D236
:1018B0000968401CFAE7D1F80090AA465FF0000BD7
:1018C0003800C0B283450AD2DAF80000040051465D
:1018D000484600F0D4F8A2461BF1010BF0E7BDE842
:1018E000F18F38B5040025000121281DFFF76AFF9C
:1018F00031BD7CB5040025000121281DFFF770FFD4
:1019000000906E463078002802D12000FFF7C2FF19
:1019100073BD2DE9FF4F87B007980190DDF81C805B
:101920000198C688019840794643361F0198C088BF
:1019300000900A98001D0099B0FBF1F50A99091D65
:101940000098B1FBF0F7009800FB171709980168A1
:101950000A9841188E4202D20A9C341B01E0099871
:10196000046809980460002D03D0D8F800806D1E2B
:10197000F9E75FF00009DDF800A0BAEB070A54456B
:1019800001D2A246FFE7002C31D0089848440390CA
:1019900008EB0700001D02909DF8500000280BD0B6
:1019A000CDF814A002980490DDF80CB0059A0499C3
:1019B000584600F079F80AE0CDF814A00398049096
:1019C000DDF808B0059A0499584600F06DF800203B
:1019D0000700D8F80080B4EB0A041AEB0909009854
:1019E000844201D2A246CEE7DDF800A0CBE70BB0DF
:1019F000BDE8F08FFEB504000D0016001F00019633
:101A0000002000903B0001AA29002000FFF781FF81
:101A1000F7BDC268C9B2008A414302EB01007047BA
:101A2000C268891A008AB1FBF0F0C0B2704738B5BD
:101A3000040000250020FEF7F9FF606821680968AE
:101A4000884217D220680068401E2168086020681C
:101A5000006801782000FFF7DCFF0500A16820681E
:101A60000068081A216809790200D2B2914201D2B5
:101A7000216808710020FEF7DEFF280032BDF8B5AE
:101A800004000D002E000020FEF7D0FF206807683C
:101A9000781C2168086031002000FFF7C1FF387012
:101AA0000020FEF7C8FFF1BD62B38B0708D0521EBD
:101AB00011F8013B00F8013B00F024808B07F6D1C0
:101AC000830740F0208000BF103A07D330B4B1E85C
:101AD0003810103AA0E83810F9D230BC530724BFB0
:101AE000B1E80810A0E8081044BF51F8043B40F8E2
:101AF000043BD20724BF31F8022B20F8022B44BF4D
:101B00000B7803707047121F17D35B0009D151F88F
:101B1000043B20F8023B1B0C121F20F8023BF6D2BC
:101B20000BE051F8043B00F8013B1B0A20F8023B94
:101B30001B0C121F00F8013BF3D238BF121D521EBE
:101B400024BF11F8013B00F8013BF8D8704730B4CE
:101B50000EE00268436802440830DC0744BFA9F184
:101B60000104E31852F8045B43F8045B091FF9D140
:101B700050F8041B0029ECD130BC7047BFF34F8FE5
:101B8000DFF8A4140A6812F4E062DFF8A00402434C
:101B90000A60BFF34F8F00BFFDE7DFF89404DFF862
:101BA00094140860704780B500F014F9002807D03D
:101BB000DFF884040068C0F30420DFF880140860B4
:101BC00000F02EF9002804D0DFF87404DFF8741454
:101BD000086000F03CF9002807D0DFF86C040068CA
:101BE000C0F34230DFF86414086000F053F90028B5
:101BF00005D0DFF85C04016831F08071016000F00D
:101C00005EF900280BD00020DFF84814086000209F
:101C1000DFF8441408600020DFF84014086000F08A
:101C200071F9002803D00320DFF83414086000F0B5
:101C30007EF900280FD00520DFF828140860012065
:101C4000DFF8241408600020DFF8201408603F202B
:101C5000DFF81C14086000F07FF9002865D0DFF879
:101C600014040068DFF810140860DFF8100400683E
:101C7000DFF80C140860DFF80C040068DFF80814C3
:101C80000860DFF808040068DFF804140860DFF873
:101C900004040068DFF800140860DFF8000400683E
:101CA000DFF8FC130860DFF8FC030068DFF8F813C6
:101CB0000860DFF8F8030068DFF8F4130860DFF865
:101CC000F4030068DFF8F0130860DFF8F003006841
:101CD000DFF8EC130860DFF8EC030068DFF8E813C6
:101CE0000860DFF8E8030068DFF8E4130860DFF855
:101CF000E4030068DFF8E0130860DFF8E003006841
:101D0000DFF8DC130860DFF8DC030068DFF8D813C5
:101D10000860DFF8D8030068DFF8D4130860DFF844
:101D2000D4030068DFF8D013086000F02AF9002817
:101D300007D0DFF8C803006810F04F00DFF8C013C9
:101D4000086000F041F9002807D0DFF8B803016807
:101D5000C90702D57FF00101016000F058F90028A1
:101D600005D0DFF8A403016851F480610160DFF859
:101D70009C03016851F470010160BFF34F8FBFF302
:101D80006F8FDFF88C130868002804D4DFF8840311
:101D9000006800281BD5DFF8802301201060DFF8E1
:101DA0007C3318680028FAD01520086018680028CD
:101DB000FCD01520DFF85C13086018680028FCD000
:101DC0000020106018680028FCD0FFF7D7FEFFF74E
:101DD000E4FE01BDDFF84803007800F0FF000628AC
:101DE0001CD1DFF84003007810F00F0F16D1DFF898
:101DF0003803017811F0F001302901D101200EE003
:101E0000017811F0F001402901D1012007E00078AC
:101E100010F0F000502801D1012000E000207047B0
:101E2000DFF8FC02007800F0FF0006280DD1DFF893
:101E3000F402007810F00F0F07D1BB48007810F0C3
:101E4000F000302801D1012000E000207047B448A4
:101E5000007800F0FF0006281AD1B248007810F090
:101E60000F0F15D1B048017811F0F001302901D1E0
:101E700001200EE0017811F0F001402901D101208C
:101E800007E0007810F0F000502801D1012000E0B8
:101E900000207047A248007800F0FF0006280CD10F
:101EA000A048007810F00F0F07D19F48007810F07D
:101EB000F000302801D1012000E000207047984850
:101EC000007800F0FF0006281AD19648007810F03C
:101ED0000F0F15D19448017811F0F001302901D18C
:101EE00001200EE0017811F0F001402901D101201C
:101EF00007E0007810F0F000502801D1012000E048
:101F0000002070478648007800F0FF0006280CD1BA
:101F10008448007810F00F0F07D18348007810F044
:101F2000F000302801D1012000E0002070477C48FB
:101F3000007800F0FF0006280CD17A48007810F0F5
:101F40000F0F07D17848007810F0F000302801D149
:101F5000012000E0002070477148007800F0FF0089
:101F600006280CD16F48007810F00F0F07D16E488B
:101F7000007810F0F000502801D1012000E000208E
:101F800070476748007800F0FF0006281AD16548BE
:101F9000007810F00F0F15D16348017811F0F001AF
:101FA000302901D101200EE0017811F0F001402923
:101FB00001D1012007E0007810F0F000502801D195
:101FC000012000E0002070475548007800F0FF0035
:101FD00006281AD15348007810F00F0F15D1524837
:101FE000017811F0F001302901D101200EE00178D3
:101FF00011F0F001402901D1012007E0007810F034
:10200000F000502801D1012000E00020704747482F
:102010000068062805D146480068062801D101203D
:1020200000E00020704700000CED00E00400FA051D
:102030000090D0032400002024030010403501400C
:102040000DF0ADBA74C00740440200103C050040DA
:10205000FCED00E00C01004010010040380500409C
:10206000A005004010560040885600401856004019
:10207000145600400404001020C50040080400105D
:1020800024C500400C04001028C5004010040010B6
:102090002CC500401404001030C500401804001086
:1020A00034C500401C04001040C50040200400104E
:1020B00044C500402404001048C500402804001016
:1020C0004CC500402C04001050C5004030040010E6
:1020D00054C500403404001060C5004038040010AE
:1020E00064C500403C04001068C500404004001076
:1020F0006CC500404404001070C500405802001038
:10210000E40E0040000400403C17004088ED00E071
:10211000001200100412001004E5014000E4014028
:10212000E00F00F0E40F00F0E80F00F030010010C5
:102130003401001080B5DFF8280400F000FCDFF85F
:102140002414D1E90023002110185941DFF8182484
:10215000D2E90023994206D801D3904203D2B0F1CC
:102160007F4071F1FF3104BDF0B402000B00D2E9F1
:102170000245D3E90267AF4204D301D8A64201D396
:10218000012000E00020C0B2F0BC704738B5040068
:102190000025DFF8D8030078012832D1002C30D098
:1021A000207F00282DD0FFF7C5FFD4E902239942F4
:1021B00020D301D890421DD32069002801D10020EE
:1021C0002077A069616988472069002819D0207F9D
:1021D000002816D0D4E902232069002110185941A3
:1021E000C4E902012100DFF8880300F0D3FB0120DD
:1021F000050006E02100DFF8780300F0CBFB0120AA
:1022000005002800C0B232BD2DE9F843050088461C
:102210000D24002088F80000FFF78CFFD5E9022389
:10222000161A73EB0107012000218F421DDB01DC30
:1022300086421AD3B6F5350F07D300F08CF98146E4
:10224000DFF8300310EB090902E0D5E9020181460D
:102250005FF496034A460021DFF8040300F0C7FA52
:102260000400002C06D101200DE00021DFF8F0026F
:1022700000F04FFB0D2C05D12800FFF787FF88F8F1
:102280000000FFE70020BDE8F28380B5DFF8E00240
:1022900000F093FB002800D1002002BD80B5DFF8DC
:1022A000D00240680068002800D1002002BD10B5AF
:1022B000FFF7EBFF0400002C01D000202077002C5A
:1022C000F6D110BDA748D0E90023B2F17F4273F1E7
:1022D000FF33C0E90023704738B50400A64D2868D5
:1022E000002805D02868FFF751FF00202860FFE78D
:1022F00031BD10B50400FFF71DFF9B4AC2E9000184
:1023000010BD2DE9FC410500FFF7C8FF04000026C1
:10231000002C38D0984F3868002802D101200600E0
:1023200013E0D4E902013A68D2E9022399420CD8B9
:1023300001D3904209D2012006003868007F0028AE
:1023400003D039688A4800F025FB3000C0B200286D
:1023500018D0FFF79AFF804669464046FFF754FFC2
:1023600000280CD03868002802D1280000F0CDF9F0
:10237000C7F800809DF800000028C5D10AE00020C1
:102380003860C1E706E07C480068002802D12800D8
:1023900000F0C2F9BDE8F3817CB50500774E6946CF
:1023A000306800F0C0FB0400002C33D020780028F7
:1023B00003D002281ED00CD322E06068007F0028E2
:1023C00006D10120616808776168694800F0E2FA87
:1023D00016E0694861680268914202D100210160FB
:1023E00007E06168624800F0F5FA01000800C0B239
:1023F000002805E0FFF75BFF01205C490870FFE75C
:102400006946306800F09EFB6946306800F08BFB3F
:102410000400C9E773BD10B50400200000F071FA94
:10242000002801D0FFF74EFF0021200000F07BFACA
:10243000002802D02000FFF74FFF0121200000F00C
:1024400072FA002802D02000FFF753FF2000FFF7A8
:10245000A3FF2000FFF755FF10BD80B5404800F0F6
:1024600074FA01BDF8B505000E00444F694638689E
:1024700000F03CFB0400002C0CD02570666069461F
:10248000386800F042FB002802D0FFF7E6FFFFE7C4
:10249000002000E00420F2BD7CB5394800680090BF
:1024A0000823582237493548006800F003FB05002F
:1024B000002D01D0280018E0294E334A694630002B
:1024C00000F0E5F80400002C01D020000DE001210F
:1024D000300000F00CFA01232C4A0121300000F0FA
:1024E00022F9012021490870200076BD10B40300B4
:1024F0001000002801D107200AE01C686261080072
:10250000C0B2012801D1012000E00020206100209C
:1025100010BC70472DE97043040088461500260062
:10252000307F002801D0002013E0B561FFF702FEE4
:102530005FF0000910EB080051EB0901C6E9020148
:102540003069002801D0C6F8108031000020FFF764
:1025500089FFBDE8708380B5014800F0F0F902BD45
:102560000000002028260020302600208C26002095
:10257000683B0000FFFFB40024260020D83B000089
:10258000DC3B00000C25002017240000FFFF7F002B
:10259000012210F01F018A40DFF8CC1303005BB268
:1025A0005B0941F823207047012210F01F018A4087
:1025B000DFF8B81303005BB25B0941F823207047D2
:1025C00010B4020052B2002A0AD54A01DFF8A03343
:1025D000040064B214F00F04234403F8042C05E053
:1025E0004A01DFF89033040064B21A5510BC7047FA
:1025F00038B504000D002900C9B2200040B2FFF731
:10260000DFFF31BD10B50400200040B2FFF7C0FF6E
:1026100010BD70B50400002C08D0DFF85C5355F0F5
:102620000105402606FB04F63000A84770BD00EB0C
:102630008103C3F84025704700EB8100D0F84005C6
:102640007047C0F804137047C0F80813704709B208
:102650004058704781B000220B001BB2C2500A00E4
:1026600012B282580092009A01B07047D0F8040567
:102670007047C0F808157047012250FA81F31A60BC
:102680007047C0F844137047C0F848137047F8B556
:1026900004000D001600B948617940F82160B84F78
:1026A000607907EBC000007900280CD00827B549F5
:1026B000B548B64A801AC008000450F00200FEF780
:1026C000BBFE380020E029882068FFF7D2FFA978F8
:1026D00094F90400FFF78CFF94F90400FFF792FFD0
:1026E000607907EBC00001210171607947F8304043
:1026F0000027A749A448A54A801AC008000450F042
:102700000300FEF799FE3800F2BD10B50400002169
:102710002068FFF7B1FF10BD10B504000421206848
:10272000FFF7AAFF10BD2DE9F84304000D001600C5
:102730001F005FF4803818FA05F85FEA850919F57B
:10274000A07926F07F4641462068FFF77DFF41468D
:102750002068FFF799FF494609B22068FFF77AFF22
:10276000320029002068FFF762FF41462068FFF72A
:1027700088FF3800C0B2002803D041462068FFF728
:1027800060FFBDE8F18370B504000D00160029005C
:102790002068FFF776FF3000C0B2002803D0290080
:1027A0002068FFF74EFF70BD38B504000D0029000A
:1027B0002068FFF769FF29002068FFF745FF31BD5A
:1027C00038B504000D00290009B22068FFF73FFF6B
:1027D000002806D0290009B22068FFF73BFF01203E
:1027E00000E0002032BD401A20F07F4070472DE904
:1027F000FE4F05000E005FF48037B7405FEA8608A1
:1028000018F5A07822F07F42009239002800FFF7E7
:10281000CBFF2868FFF72AFF834631002868FFF7BF
:102820000BFF81465A4631002868FFF700FF4146FA
:1028300009B22868FFF70EFF59464846FFF7D3FF55
:10284000012807D11020FFF7E4FE414609B22868AD
:10285000FFF700FF2868FFF709FF824651460098FE
:10286000FFF7C1FF040039002868FFF70AFF012CB9
:102870000FD1009A521C31002868FFF7D8FE1020B3
:10288000FFF7C7FE2868FFF7F1FE824527D00D202D
:102890002BE0009A31002868FFF7C9FE2868FFF78F
:1028A000E5FE824651460098401EFFF79CFF04005B
:1028B0007FF07F410298091AA14201D20D2014E055
:1028C000002C0CD1009A521C31002868FFF7AFFE93
:1028D0002868FFF7CBFE824501D00D2005E00122DC
:1028E00039002800FFF74FFF0020BDE8FE8F38B504
:1028F00004000D002A00D2B202212000FFF743FF9E
:1029000031BD10B504004FF482712000FFF758FF6D
:1029100010BD38B504000D005FF48031A9402000DF
:10292000FFF742FF31BD70B504000D00AE0016F593
:10293000A076310009B22000FFF742FF70BD10B54C
:1029400004002068FFF792FE10BD10B5040094F952
:102950000400FFF729FE10BD80B50948006807494B
:102960000968884701BD000000E100E000E200E0E6
:1029700018ED00E000E400E0B03B00006C26002011
:1029800038260020BC39000024390000243900001A
:10299000E03A000070B504000D0066683068002859
:1029A00007D029003068A2689047002801D0366817
:1029B000F4E730682860356070BD02005068006838
:1029C00051680968002904D051680968096853688A
:1029D0001960704710B4030000205C682268002A68
:1029E00009D022688A4204D10A68226001221000BC
:1029F00001E02468F2E7C0B210BC70473CB40200AA
:102A000052E8015FABB2D48923449489A34228BF22
:102A10001B1B1489A34202BFBFF32F8F002007E0C6
:102A2000C3EA050342E80134002CE9D14FF001006C
:102A300001958DF80000019808609DF8000036BCF3
:102A40007047000050E8012FC2EA024240E801212D
:102A50000029F7D1704700003CB4020052E8025F41
:102A60001FFAA5F3D488A34202BFBFF32F8F002023
:102A70000DE0D48923449489A34228BF1B1BC5EAD7
:102A8000034342E80234002CE8D14FF001000195E5
:102A90008DF80000019808609DF8000036BC704772
:102AA00050E8022FC2EA224240E802210029F7D171
:102AB0007047000070B40400002901D10E2013E01B
:102AC000100080B21D00ADB290FBF5F605FB1600BC
:102AD000002801D0092007E021600020606000206C
:102AE000A060A281E381002070BC704738B504006B
:102AF0000D0029002000FFF781FF002803D0206887
:102B00002988084400E0002032BD38B504000D00DB
:102B100028886988884204D12000FFF793FF0120AC
:102B200000E0002032BD38B504000D00290020006F
:102B3000FFF792FF002803D020686988084400E06E
:102B4000002032BD38B504000D002888698888420D
:102B500004D12000FFF7A4FF012000E0002032BDD7
:102B6000F8B504000D0016000027AF492078085C76
:102B7000002807D03200D2B22900201DFEF7FEF84F
:102B800007000BE02078085C002807D13200D2B2A1
:102B9000290014F10C00FDF7E0FC07003800F2BD3D
:102BA00038B504000025A0492078085C002804D02E
:102BB000201DFEF742F9050008E02078085C002897
:102BC00004D114F10C00FDF70DFD05002800C0B282
:102BD00032BDF8B504000D00160000279249207898
:102BE000085C002807D03200D2B22900201DFEF771
:102BF00033F907000BE02078085C002807D1320089
:102C0000D2B2290014F10C00FDF72AFD07003800AC
:102C1000F2BD01008868C968081A7047FEB5050052
:102C20000E002878002848D0022837D05AD2287AB7
:102C3000002805D101227D497D48FFF7CAFF51E0F8
:102C40007C4F68680178380000F046F90400002CD9
:102C500008D001208DF80000019468467649096883
:102C600088470BE03800FFF7D4FF002806D000208B
:102C70008DF8000068467049096888473800FFF7FA
:102C8000C8FFB988814205D3012268496848FFF727
:102C9000A0FF02E001206949087023E002208DF8BE
:102CA0000000E8680190012260496148FFF791FF48
:102CB000684661490968884714E0614F39006148F6
:102CC00000F01CF9002805D1012239005848FFF70F
:102CD00047FF06E003208DF8000068465649096862
:102CE0008847FFE7F7BD2DE9F04788B005000C00E5
:102CF00016001F0050480660002C01D107204DE04F
:102D0000626892B221684B4800F0C9F88146484693
:102D1000002843D1E26892B2A1684A4800F0BFF8A7
:102D200080464046002839D1684647492022FEF7B0
:102D3000CBFE68690690287C002801D1002000E0C5
:102D400001208DF814008DF81C70687C002801D0DB
:102D50000E2000E000208DF81500E8680290A868B9
:102D600003902868019068680090DFF8C4A0374A93
:102D70006946504600F000F98146484600280DD1CA
:102D800000202E490870286810F1010F05D001229B
:102D900026495046FFF71DFF00E0002008B0BDE8BF
:102DA000F0872DE9F0410500244C277829002148BF
:102DB00000F0A4F806003800C0B200280DD00020B2
:102DC0002070012219491A48FFF703FF8046444644
:102DD000002C02D0200000F01BF93000BDE8F0818B
:102DE0002DE9F0410500174E2900C9B2300000F06E
:102DF00073F80400002C13D10D4F3800FFF7D0FEFC
:102E000000280DD1DFF838804146300000F076F818
:102E1000002805D1012241463800FFF7A1FE040039
:102E20002000BDE8F0810000902600208E260020C2
:102E300008000020F8250020642600208F260020AE
:102E40008D260020082600202C3A00001D2C0000B2
:102E500001008868C968081A704710B40368C4681C
:102E6000828814401955C268521CC26010BC704759
:102E700030B40468836813FA81F583881D40635D6C
:102E8000137030BC704738B504000D002A000021D3
:102E90002000FFF7EDFFA068401CA06031BD10B41A
:102EA0000300002901D10E2014E0100080B2002898
:102EB00006D0100080B2401E1400A4B2204201D0FF
:102EC000092007E01960501E9880002098600020BB
:102ED000D860002010BC704738B504000D002000F9
:102EE000FFF7B6FFA188814206D32900C9B22000AE
:102EF000FFF7B3FF002000E0042032BD38B5040026
:102F00000D002000FFF7A4FF002805D029002000B5
:102F1000FFF7B9FF002000E0052032BD7FB50400B7
:102F20000D002E0020788DF8000060680190A068E8
:102F30008DF80800E0680390304850F82610684685
:102F40002F4A52F8262090477FBD7FB504000D0020
:102F50002E0020788DF8000060680190A0688DF840
:102F60000800E0680390254850F826106846244A77
:102F700052F8262090477FBD2DE9F84388B0040021
:102F80000D00160027781E4840F8276028691B4965
:102F900041F82700DFF86C90687F09F80700684661
:102FA00029002022FEF790FD04975FF000082078AA
:102FB00019F8000000280BD03000002801D0124A78
:102FC00000E000226946201DFDF79BFE804610E0D0
:102FD000207819F8000000280BD13000002801D01B
:102FE0000A4A00E00022694614F10C00FDF746FA97
:102FF0008046404609B0BDE8F083000074260020FA
:1030000070260020902600201D2F00004B2F00006E
:103010001FB50400684600210022002380E80E004E
:1030200002946A46002144F2010000F013F81FBD2B
:10303000BFF34F8F05490A6812F4E0620448024367
:103040000A60BFF34F8F00BFFDE700BF0CED00E04B
:103050000400FA052DE9F04104000D00160072B6D7
:10306000FEF767FBFEF7FDF90028FBD10F4FDFF8F5
:1030700040801049B8EB0700C008000450F0010080
:10308000FEF7DAF90C480068C00700D500BE0B490E
:10309000B8EB0707FF083F0457F002073800FEF7B8
:1030A000CBF9FFF7C5FFBDE8F08100BF2439000070
:1030B00034390000503B0000F0ED00E0303B0000F0
:1030C000012210F01F018A40764903005BB25B09C0
:1030D00041F82320704710B4020052B2002A09D5EB
:1030E0004A01714B040064B214F00F04234403F846
:1030F000042C04E04A016D4B040064B21A5510BC64
:103100007047000B40B2704738B504000D0029002D
:10311000C9B2200040B2FFF7DEFF31BD10B5040098
:10312000200040B2FFF7CCFF10BD0100080040B204
:10313000202290FBF2F05B4A52F8200049B2202294
:1031400091FBF2F302FB1311C84010F0010070472D
:1031500057490860704757490860704701215FF080
:1031600080420300DBB2D150704781B05FF08041F4
:10317000002203001BB2CA50020012B2895800910B
:10318000009901B070475FF0804100B208580028F4
:1031900001D0012000E00020C0B27047464908601D
:1031A000704710B506245FF08040FFF7AAFF40B2D9
:1031B000FFF7BBFF00280FD15FF08040FFF7A1FFB2
:1031C0002100C9B240B2FFF79FFF5FF08040FFF7D8
:1031D00098FF40B2FFF7A2FF10BD70B4374B1968DB
:1031E00051F080701860364C226852F00100206067
:1031F000344D28682E68361AB6F50A5FFAD3226075
:10320000196070BC7047020000202F4B197900290B
:1032100002D08521080004E01A6001211971002103
:103220005971704780B5FFF7BCFF0120FFF7B6FF6B
:1032300001BD80B54FF48270FFF797FF0220FFF7C2
:1032400087FFFFF7CAFF0820FFF788FF01BD80B5A1
:103250004FF48070FFF797FF00280FD04FF4807075
:10326000FFF783FF0120FFF776FF17494879002811
:1032700004D1012048710020096888474FF482700A
:10328000FFF781FF00280AD04FF48270FFF76DFF2F
:103290000220FFF760FF01200B490968884701BD44
:1032A0000000000000E100E018ED00E000E400E0B4
:1032B000040300400803004018050040FCED00E056
:1032C000001000E0041000E05026002070B500203F
:1032D00000F0EEF800F0BAF80500FFF7DDF80600A0
:1032E00000F075F900F09AF93400002C02D02000AB
:1032F000FFF78EFE504D0FF2191201212800FFF743
:10330000F5F80400002C02D02000FFF781FE002217
:103310004FF440412868FFF7FDF870BD7CB50020F0
:1033200000F0BBF9002870D00221002000F098F9CD
:10333000002832D00024002600F0BEF905006846BF
:1033400000F0D1F92900684600F02CFA002818D0C6
:10335000A5421ADB210001A800F00AFA009800EB50
:103360004400407800280AD0009810F81400C0B239
:1033700000F019F90020009901EB44014870641C29
:10338000E6E70421002000F059F900F098F9002048
:103390002A49086000202A4908600421002000F022
:1033A0005FF9002815D000242000C0B20B2810DAE5
:1033B00000F085F9002021490860002020490860BC
:1033C000204800682100C9B2405C00F0ECF8641CA1
:1033D000EAE71021002000F043F9002817D000246C
:1033E0002000C0B2122812DA00F069F90020134957
:1033F0000860002012490860134800682100C9B223
:10340000405C00F0D0F8641CEAE700F012F973BDEC
:1034100070B5040000F050F9094D286000280AD06A
:103420002868064E3168884203D11021002000F040
:1034300005F92868306070BDF03B0000842600204C
:10344000882600201C0000202000002070B50024E9
:10345000444D2878002801D0852610E00020A8607F
:1034600000206860002028610020E8600FF2C5009D
:10347000FFF7C9FE0600FFF7D5FE012028703000D7
:1034800070BD0268002A03D08A4209D01268F9E7A9
:103490000368002B01D0036800E000230B6001608B
:1034A000704701000868002801D002680A60704770
:1034B00038B504002B4DA87800280ED0002C02D07F
:1034C0000120616888470020FDF7B0FAE868401CD9
:1034D000E8600020FDF7AFFA14E00020FDF7A6FA3F
:1034E000002C04D0210015F11000FFF7CAFFE86896
:1034F000002801D1FFF79DFEE868401CE86000202D
:10350000FDF799FA31BD70B505002800C0B200285A
:1035100001D1154E00E0154E3000FFF7C2FF040048
:10352000002C04D02800C0B261688847F4E770BD61
:103530000000000010B504002000C0B2002805D132
:103540000120084948700020FFF7DDFF2000C0B2CD
:10355000012805D10120034988700120FFF7D3FF1E
:1035600010BD0000B4250020BC250020C42500208B
:103570001CB5040000208DF800002078002803D03E
:1035800002280AD00AD30DE06846FFF70AFC9DF92D
:10359000000040B200F0AAF804E003E06068FFF722
:1035A00037FDFFE713BD70B506003000C0B2FFF76E
:1035B00017FC0500002D07D0112D05D02C00002C84
:1035C00002D02000FFF724FD112DEED070BD38B5DC
:1035D0008AB004A80D491822FEF776FA0C4800902C
:1035E0004FF4006001900B490291039007230A4AAF
:1035F000694604A8FFF777FB05002C00002C02D0D9
:103600002000FFF705FD0BB030BD0000C83A0000F8
:1036100028100020281800207135000038B500F06F
:103620000EF905002C00002C02D02000FFF7F0FC62
:1036300031BD80B500F010F901BDFEE730B4EFF305
:10364000108272B61B4B0400E4B253F824400C43C2
:103650000500EDB243F8254082F3108830BC704776
:1036600070B402000020EFF3108372B6114C150005
:10367000EDB254F825500D420AD01500EDB254F8C1
:1036800025508D431600F6B244F826500124200040
:1036900083F31088C0B270BC704702000020054957
:1036A0001300DBB251F82310002901D001210800DA
:1036B000C0B270478026002036480068704770B559
:1036C0000020344908604FF480540025324E2A000F
:1036D0002100300000F0D2F80020304908700020AE
:1036E0002F49087070BD2C49016070472DE9F041E9
:1036F0000400284D284E286806EB4000407800283A
:1037000034D127490878002830D1EFF3108772B6FA
:10371000286806F81040DFF8848098F80000002838
:103720000BD0012008700020296806EB4101487089
:1037300002210020FFF782FF04E00120296806EB48
:1037400041014870286806EB400010F9020C0D2872
:1037500007D1286816F910000A2802D1012088F83C
:1037600000002868401C286087F31088BDE8F081BD
:1037700010B4EFF3108272B6074B03EB4104647888
:10378000447013F81130037082F3108810BC704736
:10379000000000007C260020280000209226002047
:1037A00093260020F0B4002300268E421BDA026824
:1037B00012F81620140008273A00D2B2002A10D0BE
:1037C00094EA030212F001021500DBB25B082A0042
:1037D000D2B2002A01D093F00703E4B264087F1E3E
:1037E000EAE7761CE1E7DBB2002B01D1012000E023
:1037F0000020C0B2F0BC7047012210F01F018A40C7
:10380000194903005BB25B0941F82320704700218E
:103810000160BFF35F8F704710B50020FDF706F918
:10382000F1EE104A34F09F00E1EE100ABFF35F8F13
:103830002620FFF7E1FF0020FDF7FDF810BD80B561
:1038400000200A4908700A48FFF7E1FF09490A48C1
:1038500000F05EF8002002BD80B5FFF7DDFF20BF5D
:1038600040BF20BF01BD000080E200E091260020A3
:1038700078260020803B00001826002062F30F22EB
:1038800062F31F42401810F0030308D0C91A1FD377
:10389000DB0748BF00F8012D28BF20F8022D1300D8
:1038A00030B414461546103928BF20E93C00FAD838
:1038B000490728BF20E90C0048BF40F8042D8900C3
:1038C00028BF20F8022D48BF00F8012D30BC7047FA
:1038D000C91818BF00F8012DCB0728BF00F8012D2B
:1038E0007047416802685268914202D100218160AC
:1038F0000DE04168096842685268914203D041680E
:103900000968816003E0416808314160E9E7704778
:1039100038B504000D002560286860602000FFF7BE
:10392000E0FF31BD5C3B000000000000B83B000040
:1039300000000000E03B000000000303743B0000B7
:10394000000000008C3B000000000000C03B0000B5
:1039500000000000E43B000000000000C83B000045
:1039600000000000D03B00000000000010B5074937
:1039700079441831064C7C44163404E00A68081D6A
:10398000114488470146A142F8D110BD78000000DB
:103990009800000000100140110004000000000029
:1039A0000020004000000000002000400000000057
:1039B000983B0000083B00000090D0035254432085
:1039C000696E7374616E636520616C7265616479A0
:1039D00020696E697469616C697A65642E00000003
:1039E0004EF68851CEF20001086840F4700008607D
:1039F000BFF34F8FBFF36F8F4FF00070E1EE100AEF
:103A000070470000CBCFFFFF6C260000280000208D
:103A1000000000003BE1FFFF2800000078FFFFFFEF
:103A20000000002000000000FEE70000FFFFFFFF95
:103A3000FFFFFFFFFFFFFFFFFFFFFFFF0000000092
:103A4000000000000000D601060100000120C04671
:103A5000002801D0FFF78AFFAFF300800020AFF30A
:103A6000008000F002F800F006F880B5FFF72EFCA9
:103A7000FFF754FCFCE700F001B8FEE707463846C4
:103A800000F002F8FBE7FEE72021090326311820A9
:103A9000ABBEF9E70548014603B4684680F30988E0
:103AA000AFF30080FFF79CFFFFF7D0FFA5EDF5FE19
:103AB0000000000000000000000000000000000006
:103AC00000000000000000000800000006000000E8
:103AD00005000000070000000000000000D0090001
:103AE0005254433A20696E697469616C697A6564FD
:103AF0002E0000004261636B656E647320666C7516
:103B00007368656400000000535452494E475F4596
:103B10004E445F4552524F520D0A00004826002085
:103B200040260020482600204C24002018000000D9
:103B300053797374656D20726573657400000000BD
:103B40000148804701480047A71B0000953A000044
:103B5000466174616C206572726F72006170705F93
:103B600074696D657200000000000000602600208E
:103B7000692100007077725F6D676D74000000004E
:103B8000B03A0000C83A000004000000736F72747D
:103B90006C697374000000004352435F4552524FFA
:103BA000520D0A00000000000000000000000000AC
:103BB0000338FDD870470000636C6F636B00000032
:103BC000434C4F434B00000055415254000000004D
:103BD0005541525445000000E82500200100060030
:103BE00061707000505253003F090000171100002F
:103BF000C8250020FEE7FEE7FEE7FEE7FEE7FEE75A
:103C0000FEE7FEE7FEE7FEE7FEE7FEE7FEE7FEE78C
:103C1000FEE7FEE7FEE7FEE7FEE7FEE7FEE7FEE77C
:103C2000FEE7FEE7FEE7FEE7FEE7FEE7FEE7FEE76C
:103C3000FEE7FEE7FEE7FEE7FEE7FEE7FEE7FEE75C
:023C4000FEE79D
:0400000500003A9528
:00000001FF
